{"abi":[{"type":"function","name":"createLoanRequest","inputs":[{"name":"amount","type":"uint256","internalType":"uint256"},{"name":"durationInDays","type":"uint256","internalType":"uint256"},{"name":"interestRate","type":"uint256","internalType":"uint256"},{"name":"zkCommitmentHash","type":"bytes32","internalType":"bytes32"}],"outputs":[],"stateMutability":"nonpayable"},{"type":"function","name":"fundLoan","inputs":[{"name":"loanId","type":"uint256","internalType":"uint256"}],"outputs":[],"stateMutability":"payable"},{"type":"function","name":"getContribution","inputs":[{"name":"loanId","type":"uint256","internalType":"uint256"},{"name":"funder","type":"address","internalType":"address"}],"outputs":[{"name":"","type":"uint256","internalType":"uint256"}],"stateMutability":"view"},{"type":"function","name":"getLoan","inputs":[{"name":"loanId","type":"uint256","internalType":"uint256"}],"outputs":[{"name":"borrower","type":"address","internalType":"address"},{"name":"amount","type":"uint256","internalType":"uint256"},{"name":"fundedAmount","type":"uint256","internalType":"uint256"},{"name":"deadline","type":"uint256","internalType":"uint256"},{"name":"interestRate","type":"uint256","internalType":"uint256"},{"name":"zkCommitmentHash","type":"bytes32","internalType":"bytes32"},{"name":"repaid","type":"bool","internalType":"bool"},{"name":"funders","type":"address[]","internalType":"address[]"}],"stateMutability":"view"},{"type":"function","name":"loanCount","inputs":[],"outputs":[{"name":"","type":"uint256","internalType":"uint256"}],"stateMutability":"view"},{"type":"function","name":"loans","inputs":[{"name":"","type":"uint256","internalType":"uint256"}],"outputs":[{"name":"borrower","type":"address","internalType":"address"},{"name":"amount","type":"uint256","internalType":"uint256"},{"name":"fundedAmount","type":"uint256","internalType":"uint256"},{"name":"deadline","type":"uint256","internalType":"uint256"},{"name":"interestRate","type":"uint256","internalType":"uint256"},{"name":"zkCommitmentHash","type":"bytes32","internalType":"bytes32"},{"name":"repaid","type":"bool","internalType":"bool"}],"stateMutability":"view"},{"type":"function","name":"repayLoan","inputs":[{"name":"loanId","type":"uint256","internalType":"uint256"}],"outputs":[],"stateMutability":"payable"},{"type":"event","name":"LoanFunded","inputs":[{"name":"id","type":"uint256","indexed":true,"internalType":"uint256"},{"name":"funder","type":"address","indexed":true,"internalType":"address"},{"name":"amount","type":"uint256","indexed":false,"internalType":"uint256"}],"anonymous":false},{"type":"event","name":"LoanRepaid","inputs":[{"name":"id","type":"uint256","indexed":true,"internalType":"uint256"}],"anonymous":false},{"type":"event","name":"LoanRequested","inputs":[{"name":"id","type":"uint256","indexed":true,"internalType":"uint256"},{"name":"borrower","type":"address","indexed":true,"internalType":"address"}],"anonymous":false}],"bytecode":{"object":"0x6080604052348015600e575f5ffd5b5061151f8061001c5f395ff3fe60806040526004361061006f575f3560e01c8063ab7b1c891161004d578063ab7b1c89146100fa578063ce63094d14610116578063e081dbf914610140578063e1ec3c681461017c5761006f565b80630778f41c14610073578063504006ca1461009b578063846b909a146100de575b5f5ffd5b34801561007e575f5ffd5b5061009960048036038101906100949190610bd5565b6101be565b005b3480156100a6575f5ffd5b506100c160048036038101906100bc9190610c39565b61033b565b6040516100d5989796959493929190610d92565b60405180910390f35b6100f860048036038101906100f39190610c39565b610458565b005b610114600480360381019061010f9190610c39565b610714565b005b348015610121575f5ffd5b5061012a610a82565b6040516101379190610e15565b60405180910390f35b34801561014b575f5ffd5b5061016660048036038101906101619190610e58565b610a8d565b6040516101739190610e15565b60405180910390f35b348015610187575f5ffd5b506101a2600480360381019061019d9190610c39565b610af4565b6040516101b59796959493929190610e96565b60405180910390f35b5f8411610200576040517f08c379a00000000000000000000000000000000000000000000000000000000081526004016101f790610f5d565b60405180910390fd5b5f8311610242576040517f08c379a000000000000000000000000000000000000000000000000000000000815260040161023990610fc5565b60405180910390fd5b5f5f60018160018154018082558091505003905f5260205f209060090201905033815f015f6101000a81548173ffffffffffffffffffffffffffffffffffffffff021916908373ffffffffffffffffffffffffffffffffffffffff16021790555084816001018190555062015180846102bb9190611010565b426102c69190611051565b81600301819055508281600401819055508181600501819055503373ffffffffffffffffffffffffffffffffffffffff1660015f805490506103089190611084565b7fb7401c74d1dadd9b1c5778044555b38bcde050d7371b0e27212cfe1c418febcd60405160405180910390a35050505050565b5f5f5f5f5f5f5f60605f5f8a81548110610358576103576110b7565b5b905f5260205f2090600902019050805f015f9054906101000a900473ffffffffffffffffffffffffffffffffffffffff1681600101548260020154836003015484600401548560050154866008015f9054906101000a900460ff16876006018080548060200260200160405190810160405280929190818152602001828054801561043557602002820191905f5260205f20905b815f9054906101000a900473ffffffffffffffffffffffffffffffffffffffff1673ffffffffffffffffffffffffffffffffffffffff16815260200190600101908083116103ec575b505050505090509850985098509850985098509850985050919395975091939597565b5f5f828154811061046c5761046b6110b7565b5b905f5260205f2090600902019050806003015442106104c0576040517f08c379a00000000000000000000000000000000000000000000000000000000081526004016104b79061112e565b60405180910390fd5b806008015f9054906101000a900460ff1615610511576040517f08c379a000000000000000000000000000000000000000000000000000000000815260040161050890611196565b60405180910390fd5b5f3411610553576040517f08c379a000000000000000000000000000000000000000000000000000000000815260040161054a906111fe565b60405180910390fd5b80600101543482600201546105689190611051565b11156105a9576040517f08c379a00000000000000000000000000000000000000000000000000000000081526004016105a090611266565b60405180910390fd5b5f816007015f3373ffffffffffffffffffffffffffffffffffffffff1673ffffffffffffffffffffffffffffffffffffffff1681526020019081526020015f205403610652578060060133908060018154018082558091505060019003905f5260205f20015f9091909190916101000a81548173ffffffffffffffffffffffffffffffffffffffff021916908373ffffffffffffffffffffffffffffffffffffffff1602179055505b34816002015f8282546106659190611051565b9250508190555034816007015f3373ffffffffffffffffffffffffffffffffffffffff1673ffffffffffffffffffffffffffffffffffffffff1681526020019081526020015f205f8282546106ba9190611051565b925050819055503373ffffffffffffffffffffffffffffffffffffffff16827fbd7ef6c6281278f6c8ac4ae9ef2f205b52425813c288dd47c377cb6b59c5076e346040516107089190610e15565b60405180910390a35050565b5f5f8281548110610728576107276110b7565b5b905f5260205f2090600902019050805f015f9054906101000a900473ffffffffffffffffffffffffffffffffffffffff1673ffffffffffffffffffffffffffffffffffffffff163373ffffffffffffffffffffffffffffffffffffffff16146107c6576040517f08c379a00000000000000000000000000000000000000000000000000000000081526004016107bd906112ce565b60405180910390fd5b806008015f9054906101000a900460ff1615610817576040517f08c379a000000000000000000000000000000000000000000000000000000000815260040161080e90611336565b60405180910390fd5b806003015442101561085e576040517f08c379a00000000000000000000000000000000000000000000000000000000081526004016108559061139e565b60405180910390fd5b80600101548160020154146108a8576040517f08c379a000000000000000000000000000000000000000000000000000000000815260040161089f90611406565b60405180910390fd5b5f6064826004015483600101546108bf9190611010565b6108c99190611451565b82600101546108d89190611051565b90508034101561091d576040517f08c379a0000000000000000000000000000000000000000000000000000000008152600401610914906114cb565b60405180910390fd5b5f5f90505b8260060180549050811015610a33575f836006018281548110610948576109476110b7565b5b905f5260205f20015f9054906101000a900473ffffffffffffffffffffffffffffffffffffffff1690505f846007015f8373ffffffffffffffffffffffffffffffffffffffff1673ffffffffffffffffffffffffffffffffffffffff1681526020019081526020015f205490505f60648660040154836109c89190611010565b6109d29190611451565b826109dd9190611051565b90508273ffffffffffffffffffffffffffffffffffffffff166108fc8290811502906040515f60405180830381858888f19350505050158015610a22573d5f5f3e3d5ffd5b505050508080600101915050610922565b506001826008015f6101000a81548160ff021916908315150217905550827f9a7851747cd7ffb3fe0a32caf3da48b31f27cebe131267051640f8b72fc4718660405160405180910390a2505050565b5f5f80549050905090565b5f5f8381548110610aa157610aa06110b7565b5b905f5260205f2090600902016007015f8373ffffffffffffffffffffffffffffffffffffffff1673ffffffffffffffffffffffffffffffffffffffff1681526020019081526020015f2054905092915050565b5f8181548110610b02575f80fd5b905f5260205f2090600902015f91509050805f015f9054906101000a900473ffffffffffffffffffffffffffffffffffffffff1690806001015490806002015490806003015490806004015490806005015490806008015f9054906101000a900460ff16905087565b5f5ffd5b5f819050919050565b610b8181610b6f565b8114610b8b575f5ffd5b50565b5f81359050610b9c81610b78565b92915050565b5f819050919050565b610bb481610ba2565b8114610bbe575f5ffd5b50565b5f81359050610bcf81610bab565b92915050565b5f5f5f5f60808587031215610bed57610bec610b6b565b5b5f610bfa87828801610b8e565b9450506020610c0b87828801610b8e565b9350506040610c1c87828801610b8e565b9250506060610c2d87828801610bc1565b91505092959194509250565b5f60208284031215610c4e57610c4d610b6b565b5b5f610c5b84828501610b8e565b91505092915050565b5f73ffffffffffffffffffffffffffffffffffffffff82169050919050565b5f610c8d82610c64565b9050919050565b610c9d81610c83565b82525050565b610cac81610b6f565b82525050565b610cbb81610ba2565b82525050565b5f8115159050919050565b610cd581610cc1565b82525050565b5f81519050919050565b5f82825260208201905092915050565b5f819050602082019050919050565b610d0d81610c83565b82525050565b5f610d1e8383610d04565b60208301905092915050565b5f602082019050919050565b5f610d4082610cdb565b610d4a8185610ce5565b9350610d5583610cf5565b805f5b83811015610d85578151610d6c8882610d13565b9750610d7783610d2a565b925050600181019050610d58565b5085935050505092915050565b5f61010082019050610da65f83018b610c94565b610db3602083018a610ca3565b610dc06040830189610ca3565b610dcd6060830188610ca3565b610dda6080830187610ca3565b610de760a0830186610cb2565b610df460c0830185610ccc565b81810360e0830152610e068184610d36565b90509998505050505050505050565b5f602082019050610e285f830184610ca3565b92915050565b610e3781610c83565b8114610e41575f5ffd5b50565b5f81359050610e5281610e2e565b92915050565b5f5f60408385031215610e6e57610e6d610b6b565b5b5f610e7b85828601610b8e565b9250506020610e8c85828601610e44565b9150509250929050565b5f60e082019050610ea95f83018a610c94565b610eb66020830189610ca3565b610ec36040830188610ca3565b610ed06060830187610ca3565b610edd6080830186610ca3565b610eea60a0830185610cb2565b610ef760c0830184610ccc565b98975050505050505050565b5f82825260208201905092915050565b7f56616c6f72206465766520736572206d61696f7220717565207a65726f0000005f82015250565b5f610f47601d83610f03565b9150610f5282610f13565b602082019050919050565b5f6020820190508181035f830152610f7481610f3b565b9050919050565b7f5072617a6f206465766520736572206d61696f7220717565207a65726f0000005f82015250565b5f610faf601d83610f03565b9150610fba82610f7b565b602082019050919050565b5f6020820190508181035f830152610fdc81610fa3565b9050919050565b7f4e487b71000000000000000000000000000000000000000000000000000000005f52601160045260245ffd5b5f61101a82610b6f565b915061102583610b6f565b925082820261103381610b6f565b9150828204841483151761104a57611049610fe3565b5b5092915050565b5f61105b82610b6f565b915061106683610b6f565b925082820190508082111561107e5761107d610fe3565b5b92915050565b5f61108e82610b6f565b915061109983610b6f565b92508282039050818111156110b1576110b0610fe3565b5b92915050565b7f4e487b71000000000000000000000000000000000000000000000000000000005f52603260045260245ffd5b7f5072617a6f20657870697261646f0000000000000000000000000000000000005f82015250565b5f611118600e83610f03565b9150611123826110e4565b602082019050919050565b5f6020820190508181035f8301526111458161110c565b9050919050565b7f4a6120666f69207175697461646f0000000000000000000000000000000000005f82015250565b5f611180600e83610f03565b915061118b8261114c565b602082019050919050565b5f6020820190508181035f8301526111ad81611174565b9050919050565b7f456e7669652045544820706172612066696e616e6369617200000000000000005f82015250565b5f6111e8601883610f03565b91506111f3826111b4565b602082019050919050565b5f6020820190508181035f830152611215816111dc565b9050919050565b7f457863656465206f2076616c6f722070656469646f00000000000000000000005f82015250565b5f611250601583610f03565b915061125b8261121c565b602082019050919050565b5f6020820190508181035f83015261127d81611244565b9050919050565b7f4170656e6173206f20746f6d61646f7220706f646520717569746172000000005f82015250565b5f6112b8601c83610f03565b91506112c382611284565b602082019050919050565b5f6020820190508181035f8301526112e5816112ac565b9050919050565b7f4a61207175697461646f000000000000000000000000000000000000000000005f82015250565b5f611320600a83610f03565b915061132b826112ec565b602082019050919050565b5f6020820190508181035f83015261134d81611314565b9050919050565b7f41696e64612064656e74726f20646f207072617a6f00000000000000000000005f82015250565b5f611388601583610f03565b915061139382611354565b602082019050919050565b5f6020820190508181035f8301526113b58161137c565b9050919050565b7f41696e6461206e616f2066696e616e636961646f20746f74616c6d656e7465005f82015250565b5f6113f0601f83610f03565b91506113fb826113bc565b602082019050919050565b5f6020820190508181035f83015261141d816113e4565b9050919050565b7f4e487b71000000000000000000000000000000000000000000000000000000005f52601260045260245ffd5b5f61145b82610b6f565b915061146683610b6f565b92508261147657611475611424565b5b828204905092915050565b7f506167616d656e746f20696e737566696369656e7465000000000000000000005f82015250565b5f6114b5601683610f03565b91506114c082611481565b602082019050919050565b5f6020820190508181035f8301526114e2816114a9565b905091905056fea2646970667358221220600188c67b0a0316dbe3a4d1a4a56c4aa9148cbf1a086a261c03deaa255bd84964736f6c634300081d0033","linkReferences":{}},"methodIdentifiers":{"createLoanRequest(uint256,uint256,uint256,bytes32)":"0778f41c","fundLoan(uint256)":"846b909a","getContribution(uint256,address)":"e081dbf9","getLoan(uint256)":"504006ca","loanCount()":"ce63094d","loans(uint256)":"e1ec3c68","repayLoan(uint256)":"ab7b1c89"},"id":19}